:1000000002002E02000000000000000200000000BC
:1000100000000002000000000000000200000000DC
:06002000000000020000D8
:08002600E493F608A3D9F922C6
:10002E007581097580FF7590FF75A0FF75B0FF751E
:10003E000800C3E50894095020A90874010980023C
:10004E00C333D9FCF864FFF5807D027E457F3DDF2A
:10005E00FEDEFCDDFA050880D9750800C3E50894BC
:10006E00095020A9087401098002C333D9FCF86431
:10007E00FFF5907D027E457F3DDFFEDEFCDDFA055D
:10008E000880D9750800C3E50894095020A90874A2
:10009E0001098002C333D9FCF864FFF5A07D027E0E
:1000AE00457F3DDFFEDEFCDDFA050880D9750800D0
:1000BE00C3E50894095020A9087401098002C333CE
:1000CE00D9FCF864FFF5B07D027E457F3DDFFEDE94
:0B00DE00FCDDFA050880D9013D80FE22
:00000001FF
