:1000000002004602000000000000000200000000A4
:1000100000000002000000000000000200000000DC
:06002000000000020000D8
:08002600E493F608A3D9F922C6
:10002E00A80AA90BC3E50A9401F50AE50B9400F59D
:08003E000BE849600280E92291
:1000460075810C750900C3E50994C8504F75080001
:10005600C3E50894085041E5082470F9E43401FA30
:10006600850182850283E493F88500B0E50824784B
:10007600F9E43401FA850182850283E493F8850068
:10008600A0750A32750B00112E75B000750A0A7537
:100096000B00112E050880B8050980AA750900C352
:1000A600E50994C8504F750800C3E5089408504107
:1000B600E5082480F9E43401FA850182850283E4A7
:1000C60093F88500B0E5082458F9E43401FA85016F
:1000D60082850283E493F88500A0750A32750B00C9
:1000E600112E75B000750A0A750B00112E050880D1
:1000F600B8050980AA750900C3E50994C8504F756B
:100106000800C3E50894085041E5082460F9E43482
:1001160001FA850182850283E493F88500B0E5083B
:100126002468F9E43401FA850182850283E493F8B0
:100136008500A0750A32750B00112E75B000750A80
:100146000A750B00112E050880B8050980AA014919
:0201560080FE29
:08015800FEFDFBF7EFDFBF7FA6
:080160003E60C0C0C0603E001B
:08016800FEFDFBF7EFDFBF7F96
:08017000C3C3C3C3C3C37E0077
:08017800FEFDFBF7EFDFBF7F86
:080180003C66C3C3C3663C00EA
:00000001FF
