:1000000002003E02000000000000000200000000AC
:1000100000000002000000000000000200000000DC
:06002000000000020000D8
:10002600A80AA90BC3E50A9401F50AE50B9400F5A5
:080036000BE849600280E92299
:10003E0075810C750900C3E50994C8504F75080009
:10004E00C3E50894085041E5082468F9E43401FA40
:10005E00850182850283E493F88500B0E50824705B
:10006E00F9E43401FA850182850283E493F8850070
:10007E00A0750A32750B00112675B000750A0A7547
:10008E000B001126050880B8050980AA750900C362
:10009E00E50994C8504F750800C3E508940850410F
:1000AE00E5082478F9E43401FA850182850283E4B7
:1000BE0093F88500B0E5082450F9E43401FA85017F
:1000CE0082850283E493F88500A0750A32750B00D1
:1000DE00112675B000750A0A750B001126050880E9
:1000EE00B8050980AA750900C3E50994C8504F7573
:1000FE000800C3E50894085041E5082458F9E43493
:10010E0001FA850182850283E493F88500B0E50843
:10011E002460F9E43401FA850182850283E493F8C0
:10012E008500A0750A32750B00112675B000750A90
:10013E000A750B001126050880B8050980AA014131
:02014E0080FE31
:08015000FEFDFBF7EFDFBF7FAE
:08015800007E7E6060607E7E87
:08016000FEFDFBF7EFDFBF7F9E
:080168000066666666667E7E95
:08017000FEFDFBF7EFDFBF7F8E
:08017800007E7E6666667E7E55
:00000001FF
