:100000000203AC020000000000000002000000003B
:1000100000000002000000000000000200000000DC
:06002000000000020000D8
:060026007F14DFFE002242
:0A002C007E097FE9DFFEDEFC002202
:020036000022A6
:10003800E51B5480F8630080E8600478008002784B
:1000480001E81392A5E51B5440F8630040E86004FA
:10005800780080027801E81392A4E51B5420F86325
:100068000020E86004780080027801E81392A3E594
:100078001B5410F8630010E86004780080027801CF
:10008800E81392A2E5106004780080027801E81372
:1000980092A0D2A11136C2A1E51B5408F86300084A
:1000A800E86004780080027801E81392A5E51B5403
:1000B80004F8630004E86004780080027801E8131B
:1000C80092A4E51B5402F8630002E86004780080FB
:1000D800027801E81392A3E51B5401F8630001E8D4
:1000E8006004780080027801E81392A2E5106004A9
:1000F800780080027801E81392A0D2A11136C2A13B
:0B010800E5106004112C80021126227B
:10011300BD000BB90029E88CF084F8ACF022E4CDE3
:10012300FF75F008E828F8E933F9ED33FDE99CEDB4
:100133009F4005FDE99CF908D5F0E9E4C9FC22ECF0
:10014300FFF5F0E98420D21CF9ACF075F008E8283B
:10015300F8EC33FC40079F5006D5F0F222C39FFC16
:0501630008D5F0EA22BE
:060168007F03DFFE002210
:0C016E0075100085161B11387510012259
:10017A00751600751800751900751A10C3E51994DB
:10018A000450507580F0E51A64FFF5801136113677
:10019A00E58044F0F88500176300FF850017E860E2
:1001AA001B851816E51760117801E517088002C348
:1001BA0013D8FCF517051680EB7519047801E51AB2
:1001CA00088002C333D8FCF51AE5182404F518058B
:0601DA001980A9A81622FD
:1001E000C2A1C2A0112C112C112CC2A5C2A4C2A361
:1001F000C2A2D2A3D2A2D2A11136C2A1112CD2A1E5
:100200001136C2A1112CD2A11136C2A1112CD2A338
:10021000C2A2D2A11136C2A1112CC2A5C2A4C2A3EE
:10022000D2A3C2A2D2A11136C2A1C2A3D2A5D2A189
:100230001136C2A1112CC2A5D2A2D2A11136C2A1DF
:10024000C2A2D2A11136C2A1112CC2A2D2A11136D2
:10025000C2A1D2A2D2A11136C2A1112CC2A2D2A196
:100260001136C2A1D2A5D2A4D2A3D2A2D2A1113654
:08027000C2A1112C751001223E
:08027800E493F608A3D9F92272
:040280007580FF2264
:100284008019751180802E7511C080297511948094
:10029400247511D4801F751180801AE511640160E2
:1002A400E1E511640260E0E511640360DFE51164D7
:1002B4000460DE80E1C3E5129401F8E51128F885B5
:1002C400001185001B1138751000751400E5132505
:1002D40014F8E6600DE5132514F88616316E05143E
:0602E40080EB7510012201
:1002EA00751400C3E5149405500BE5132514F8762C
:1002FA0020051480EEE5132514F876001514E5138D
:10030A002514F88500157C0A7D00A811A91231135D
:10031A00A804A905743028F9A815A6017C0A7D004D
:10032A00A811A9123113850011850112E84970023A
:07033A008004151480C822A5
:100341008019751180802E7511C0802975119480D6
:10035100247511D4801F751180801AE51164016024
:10036100E1E511640260E0E511640360DFE5116419
:100371000460DE80E1C3E5129401F8E51128F885F7
:10038100001175100185001B113875100085131BB4
:0603910011387510012275
:10039700317A850011E580540FF9640F60043168E4
:0503A70080F3A8112203
:1003AC00758143120500750900518031E0751B0100
:1003BC001138751B0C113875110175120175133C30
:1003CC00518475110275120175133551847508002D
:1003DC007197850008E860F8805075083181A47524
:1003EC00083281A475083381A475084181A475086D
:1003FC003481A475083581A475083681A47508422A
:10040C0081A475083781A475083881A475083981D1
:10041C00A475084381A475082A81A475083081A4A9
:10042C0075082381A475084481A4E508640160AAB9
:10043C00E508640260A9E508640360A8E5086404A3
:10044C0060A7E508640560A6E508640660A5E508F4
:10045C00640760A4E508640860A3E508640960A269
:10046C00E508640A70028113E508640B70028118B8
:10047C00E508640C7002811DE508640D7002812290
:10048C00E508640E70028127E508640F7002812C68
:10049C00E508641070028131E50865306008750963
:1004AC00018508308002050975110175120A85084D
:1004BC00137141E50964FF700E7509007511027521
:1004CC00120A7513315184850911E4F51275130A5A
:1004DC0051EA75110275120A75130A518461D9809B
:0104EC00FE11
:0E050000783079137582ED758304120278222B
:0104ED00000E
:0404EE0020202000AA
:0704F20054696D65733A00C7
:0704F9004B657920203A0059
:00000001FF
