:1000000002030002000000000000000200000000E7
:1000100000000002000000000000000200000000DC
:06002000000000020000D8
:0A0026007E097FE9DFFEDEFC002208
:060030007F14DFFE002238
:020036000022A6
:10003800E51B5480F8630080E8600478008002784B
:1000480001E81392A5E51B5440F8630040E86004FA
:10005800780080027801E81392A4E51B5420F86325
:100068000020E86004780080027801E81392A3E594
:100078001B5410F8630010E86004780080027801CF
:10008800E81392A2E50F6004780080027801E81373
:1000980092A0D2A11136C2A1E51B5408F86300084A
:1000A800E86004780080027801E81392A5E51B5403
:1000B80004F8630004E86004780080027801E8131B
:1000C80092A4E51B5402F8630002E86004780080FB
:1000D800027801E81392A3E51B5401F8630001E8D4
:1000E8006004780080027801E81392A2E50F6004AA
:1000F800780080027801E81392A0D2A11136C2A13B
:0B010800E50F60041126800211302278
:060113007F03DFFE002265
:0C011900750F0085161B1138750F0122B0
:10012500751600751800751900751A10C3E5199430
:100135000450507580F0E51A64FFF58011361136CC
:10014500E58044F0F88500176300FF850017E86037
:100155001B851816E51760117801E517088002C39D
:1001650013D8FCF517051680EB7519047801E51A07
:10017500088002C333D8FCF51AE5182404F51805E0
:060185001980A9A8162252
:10018B00C2A1C2A0112611261126C2A5C2A4C2A3C8
:10019B00C2A2D2A3D2A2D2A11136C2A11126D2A140
:1001AB001136C2A11126D2A11136C2A11126D2A39A
:1001BB00C2A2D2A11136C2A11126C2A5C2A4C2A34A
:1001CB00D2A3C2A2D2A11136C2A1C2A3D2A5D2A1DF
:1001DB001136C2A11126C2A5D2A2D2A11136C2A13B
:1001EB00C2A2D2A11136C2A11126C2A2D2A111362E
:1001FB00C2A1D2A2D2A11136C2A11126C2A2D2A1F2
:10020B001136C2A1D2A5D2A4D2A3D2A2D2A11136A9
:08021B00C2A11126750F01229A
:08022300E493F608A3D9F922C7
:04022B007580FF22B9
:10022F003125850012E580540FF9640F60043113F6
:05023F0080F3A812226B
:100244008019751280802E7512C0802975129480D1
:10025400247512D4801F751280801AE5126401601F
:10026400E1E512640260E0E512640360DFE5126414
:100274000460DE80E1C3E5139401F8E51228F885F3
:100284000012750F0185001B1138750F0085141BB2
:060294001138750F012274
:10029A008019751280802E7512C08029751294807B
:1002AA00247512D4801F751280801AE512640160C9
:1002BA00E1E512640260E0E512640360DFE51264BE
:1002CA000460DE80E1C3E5139401F8E51228F8859D
:1002DA00001285001B1138750F00751500E51425ED
:1002EA0015F8E6600DE5142515F886163119051579
:0602FA0080EB750F0122EC
:1003000075813E12049E512B318B751B011138757E
:100310001B0C1138751201751301751437519A753C
:100320001202751301751431519A750D00512F8504
:10033000000DE860F8805F750D317408250CF876C3
:1003400001050C61AE750D307408250CF8760005BA
:100350000C805B750C0075300880537803E5080845
:100360008002C333D8FCF5117902E509098002C384
:1003700033D9FCF8E51128F5117901E50A09800265
:10038000C333D9FCF8E51128F511A80BE51128F5C0
:10039000117510018018E50D6401609BE50D640E78
:1003A00060A3E50D640F60ABE50D641060ADE51072
:1003B0006401600281748050750E308174750E3155
:1003C0008174750E328174750E338174750E3481AB
:1003D00074750E358174750E368174750E3781749F
:1003E000750E388174750E398174750E418174757E
:1003F0000E428174750E438174750E448174750EBE
:10040000458174750E468174E51160ACE511640197
:1004100060ABE511640260AAE511640360A9E5110F
:10042000640460A8E511640560A7E511640660A690
:10043000E511640760A5E511640860A4E51164098D
:10044000700261E5E511640A700261EAE511640B6E
:10045000700261EFE511640C700261F4E511640D46
:10046000700261F9E511640E700261FEE511640F1E
:1004700070028103751202751307850E145144052D
:1004800030751201853013850D145144612A80FEA8
:0E049E007830790E7582907583041202232245
:010490000566
:060491004865783A2000E6
:0704970042696E203A2000CB
:00000001FF
