:100000000203EE02000000000000000200000000F9
:1000100000000002000000000000000200000000DC
:06002000000000020000D8
:060026007F14DFFE002242
:0A002C007E097FE9DFFEDEFC002202
:020036000022A6
:10003800E5185480F8630080E8600478008002784E
:1000480001E81392A5E5185440F8630040E86004FD
:10005800780080027801E81392A4E5185420F86328
:100068000020E86004780080027801E81392A3E594
:10007800185410F8630010E86004780080027801D2
:10008800E81392A2E5096004780080027801E81379
:1000980092A0D2A11136C2A1E5185408F86300084D
:1000A800E86004780080027801E81392A5E5185406
:1000B80004F8630004E86004780080027801E8131B
:1000C80092A4E5185402F8630002E86004780080FE
:1000D800027801E81392A3E5185401F8630001E8D7
:1000E8006004780080027801E81392A2E5096004B0
:1000F800780080027801E81392A0D2A11136C2A13B
:0B010800E5096004112C800211262282
:10011300BD000BB90029E88CF084F8ACF022E4CDE3
:10012300FF75F008E828F8E933F9ED33FDE99CEDB4
:100133009F4005FDE99CF908D5F0E9E4C9FC22ECF0
:10014300FFF5F0E98420D21CF9ACF075F008E8283B
:10015300F8EC33FC40079F5006D5F0F222C39FFC16
:0501630008D5F0EA22BE
:0C01680075090085131811387509012273
:10017400751300751500751600751710C3E51694F0
:100184000450507580F0E51764FFF5801136113680
:10019400E58044F0F88500146300FF850014E860EE
:1001A4001B851513E51460117801E514088002C35A
:1001B40013D8FCF514051380EB7516047801E517C4
:1001C400088002C333D8FCF517E5152404F515059A
:0601D4001680A9A8132209
:0601DA007F03DFFE00229E
:1001E000317485000FE580540FF9640F600431DA33
:0501F00080F3A80F22BE
:1001F5008019750F80802E750FC08029750F94802A
:1002050024750FD4801F750F80801AE50F64016077
:10021500E1E50F640260E0E50F640360DFE50F646C
:100225000460DE80E1C3E5109401F8E50F28F88548
:10023500000F8500181138750900751200E51125A4
:1002450012F8E6600DE5112512F8861331680512DE
:0602550080EB7509012297
:10025B00C2A1C2A0112C112C112CC2A5C2A4C2A3E5
:10026B00C2A2D2A3D2A2D2A11136C2A1112CD2A169
:10027B001136C2A1112CD2A11136C2A1112CD2A3BD
:10028B00C2A2D2A11136C2A1112CC2A5C2A4C2A373
:10029B00D2A3C2A2D2A11136C2A1C2A3D2A5D2A10E
:1002AB001136C2A1112CC2A5D2A2D2A11136C2A164
:1002BB00C2A2D2A11136C2A1112CC2A2D2A1113657
:1002CB00C2A1D2A2D2A11136C2A1112CC2A2D2A11B
:1002DB001136C2A1D2A5D2A4D2A3D2A2D2A11136D9
:0802EB00C2A1112C75090122CA
:0802F300E493F608A3D9F922F7
:0402FB007580FF22E9
:1002FF00C2D5ED30E709B2D5E4C39CFCE49DFDE91E
:10030F0030E715B2D5E4C398F8E499F9120113C395
:10031F00E49CFCE49DFD800312011330D507C3E478
:06032F0098F8E499F922A0
:10033500C3E50F9400400DD3E50F94095006E50F72
:100345002430F822C3E50F940A4013D3E50F940F28
:10035500500CC3E50F940AF97841E928F822783062
:010365002275
:100366008019750F80802E750FC08029750F9480B7
:1003760024750FD4801F750F80801AE50F64016005
:10038600E1E50F640260E0E50F640360DFE50F64FA
:100396000460DE80E1C3E5109401F8E50F28F885D6
:1003A600000F7509018500181138750900851118A7
:0603B60011387509012257
:1003BC00C3E50F9430400ED3E50F94395007C3E5D5
:1003CC000F9430F822C3E50F94414013D3E50F94FA
:1003DC0046500CC3E50F9441F9780AE928F82278C5
:0203EC000022ED
:1003EE0075814B120631750A00750B00750C0051A4
:1003FE00FB515B751801113875180C1138750F010A
:10040E0075100175114531F5750F027510017511D5
:10041E003F31F575080031E0850008E860F880503E
:10042E0075083181EC75083281EC75083381EC75F5
:10043E00084181EC75083481EC75083581EC75083E
:10044E003681EC75084281EC75083781EC750838F9
:10045E0081EC75083981EC75084381EC75082A81A9
:10046E00EC75083081EC75082381EC75084481EC3D
:10047E00E508640160AAE508640260A9E508640362
:10048E0060A8E508640460A7E508640560A6E508B1
:10049E00640660A5E508640760A4E508640860A327
:1004AE00E508640960A2E508640A7002815BE5084C
:1004BE00640B70028160E508640C70028165E508CA
:1004CE00640D7002816AE508640E7002816FE508A2
:1004DE00640F70028174E508641070028179E5087A
:1004EE006423701A050CE50C64017009E53E2401C5
:1004FE00F8E4F98004A83EE4F985003E8054E50C4A
:10050E0070267804E50A088002C333D8FCF50A8504
:10051E00080F71BCE50A28F50A750F01853E108596
:10052E0008117166053E802AE50C6401702478047A
:10053E00E50B088002C333D8FCF50B85080F71BCA0
:10054E00E50B28F50B750F02853E108508117166B7
:10055E00053EE50C64026002C112E50A250BF50D9D
:10056E00850BF0E50AA4F885000E75180111387593
:10057E000F0175100175113731F57804E50D0880FE
:10058E0002C313D8FCF50F7135850011750F017577
:10059E0010067166E50D540FF50F71358500117556
:1005AE000F017510077166750F0275100175113008
:1005BE0031F585000F7135850011750F0275100A22
:1005CE0071667C007D01A80EE4F951FFA804A9050F
:1005DE007C04E9AA000C8006A2E713CA13CADCF851
:1005EE00FB85020F7135850011750F0275100B71A9
:1005FE0066E50E540FF50F7135850011750F0275F6
:08060E00100C7166812180FED1
:0E0631007830791B7582167583061202F3224B
:07061600746963683A2000DB
:07061D00746F6E673A2000C4
:0106240005D0
:06062500536F323A200081
:06062B00736F313A20005C
:00000001FF
