:100000000200B90200000000000000020000000031
:1000100000000002000000000000000200000000DC
:06002000000000020000D8
:10002600BD000BB90029E88CF084F8ACF022E4CDD1
:10003600FF75F008E828F8E933F9ED33FDE99CEDA2
:100046009F4005FDE99CF908D5F0E9E4C9FC22ECDE
:10005600FFF5F0E98420D21CF9ACF075F008E82829
:10006600F8EC33FC40079F5006D5F0F222C39FFC04
:0500760008D5F0EA22AC
:10007B00C2D5ED30E709B2D5E4C39CFCE49DFDE9A4
:10008B0030E715B2D5E4C398F8E499F9120026C30A
:10009B00E49CFCE49DFD800312002630D507C3E4ED
:0600AB0098F8E499F92227
:0800B100E493F608A3D9F9223B
:1000B90075813A1201B7D2A0D2A1D2A2D2A3750BEF
:1000C90085750C1AC3E50B940074006480F8E50C7F
:1000D900648098500221A17CE87D03A80BA90C112A
:1000E9007B85000D7CE87D03A80BA90C117BA80476
:1000F900A9057C647D00117B85000A7C647D00A8CC
:100109000BA90C117BA804A9057C0A7D00117B852C
:1001190000087C0A7D00A80BA90C117BA804A9057D
:10012900850009750E00C3E50E94045054C2A074ED
:1001390030250DF886807E097F19DFFEDEFC00D2AE
:10014900A0C2A17430250AF886807E097F19DFFED6
:10015900DEFC00D2A1C2A274302508F886807E098F
:100169007F19DFFEDEFC00D2A2C2A374302509F894
:1001790086807E097F19DFFEDEFC00D2A3050E8092
:10018900A5E50B450C7002800FC3E50B9401F50B37
:10019900E50C9400F50C01CDD2A0D2A1D2A2D2A334
:0401A90080F680FE5E
:0E01B7007830790A7582AD7583011200B1228D
:0A01AD00C0F9A4B0999282F8809086
:00000001FF
