:1000000002004602000000000000000200000000A4
:1000100000000002000000000000000200000000DC
:06002000000000020000D8
:10002600A80EA90FC3E50E9401F50EE50F9400F591
:080036000FE849600280E92295
:08003E00E493F608A3D9F922AE
:1000460075813A120115750B0B750A007508007556
:100056000900C3E50894A674006480F8E509648085
:1000660098400201F175F00AE50B84F885000D75DC
:10007600F00AE50B84E5F0F885000C7430250DF8E0
:100086008680C2A0750E01750F001126D2A07430AD
:10009600250CF88680C2A1750E01750F001126D2B7
:1000A600A175F00AE50A84F885000D75F00AE50ADF
:1000B60084E5F0F885000C7430250DF88680C2A220
:1000C600750E01750F001126D2A27430250CF88624
:1000D60080C2A3750E01750F001126D2A3740125E7
:1000E60008F50874003509F5090158050AE50A649A
:1000F6003C700E750A00050BE50B64187003750B52
:0501060000015280FE23
:0E0115007830790A75820B75830112003E2244
:0A010B00C0F9A4B0999282F8809028
:00000001FF
