:1000000002041D02000000000000000200000000C9
:1000100000000002000000000000000200000000DC
:06002000000000020000D8
:020026000022B6
:0A0028007E097FE9DFFEDEFC002206
:060032007F14DFFE002236
:10003800E5165480F8630080E86004780080027850
:1000480001E81392A5E5165440F8630040E86004FF
:10005800780080027801E81392A4E5165420F8632A
:100068000020E86004780080027801E81392A3E594
:10007800165410F8630010E86004780080027801D4
:10008800E81392A2E50A6004780080027801E81378
:1000980092A0D2A11126C2A1E5165408F86300085F
:1000A800E86004780080027801E81392A5E5165408
:1000B80004F8630004E86004780080027801E8131B
:1000C80092A4E5165402F8630002E8600478008000
:1000D800027801E81392A3E5165401F8630001E8D9
:1000E8006004780080027801E81392A2E50A6004AF
:1000F800780080027801E81392A0D2A11126C2A14B
:0B010800E50A60041128800211322279
:0C011300750A008515161138750A0122C6
:10011F008019751180802E7511C0802975119480FA
:10012F00247511D4801F751180801AE51164016048
:10013F00E1E511640260E0E511640360DFE511643D
:10014F000460DE80E1C3E5129401F8E51128F8851B
:10015F0000118500161138750A00751400E5132576
:10016F0014F8E6600DE5132514F886153113051400
:06017F0080EB750A01226D
:10018500BD000BB90029E88CF084F8ACF022E4CD71
:10019500FF75F008E828F8E933F9ED33FDE99CED42
:1001A5009F4005FDE99CF908D5F0E9E4C9FC22EC7E
:1001B500FFF5F0E98420D21CF9ACF075F008E828C9
:1001C500F8EC33FC40079F5006D5F0F222C39FFCA4
:0501D50008D5F0EA224C
:1001DA00E88CF0A4AFF0C88DF0A42FC98CF0A42944
:0201EA00F922F8
:1001EC00C2A1C2A0112811281128C2A5C2A4C2A361
:1001FC00C2A2D2A3D2A2D2A11126C2A11128D2A1ED
:10020C001126C2A11128D2A11126C2A11128D2A354
:10021C00C2A2D2A11126C2A11128C2A5C2A4C2A3F6
:10022C00D2A3C2A2D2A11126C2A1C2A3D2A5D2A18D
:10023C001126C2A11128C2A5D2A2D2A11126C2A1F7
:10024C00C2A2D2A11126C2A11128C2A2D2A11126EA
:10025C00C2A1D2A2D2A11126C2A11128C2A2D2A19E
:10026C001126C2A1D2A5D2A4D2A3D2A2D2A1112668
:08027C00C2A11128750A01223C
:08028400E493F608A3D9F92266
:10028C00E50B5400F8E50C5480F9E8496016A830E9
:10029C00762D630BFF630CFF7401250BF50B7400BB
:1002AC00350CF50C7A01E50CA80B0A8005C313C8B4
:1002BC0013C8DAF9F985000D75F064E884F860105C
:1002CC00A83075F064E50D84F92430F9A60180049A
:1002DC00A8307630E5302401F875F00AE50D84F984
:1002EC0075F00AE984E5F0F92430F9A601E530242B
:1002FC0002F875F00AE50D84E5F0F92430F9A60151
:10030C007A03A90CE50B0A8005C333C933C9DAF9A2
:10031C00F885000E85010F53000F53010085000E68
:10032C0085010F7C717D0231DA85000E85010FC0CD
:10033C0000E5302404F8850010D0007CE87D033102
:10034C0085743028F9A810A601E5302405F885003D
:10035C00107C647D00A80EA90F31857C0A7D0031CC
:10036C0085A804A905743028F9A810A601E5302445
:10037C0006F88500107C0A7D00A80EA90F31857C3B
:10038C000A7D003185A804A905743028F9A810A6A7
:10039C0001E5302407F88500107C0A7D00A80EA921
:1003AC000F3185A804A905743028F9A810A6017589
:0B03BC001102751205853013311F225D
:1003C7008019750B80802E750BC08029750B948062
:1003D70024750BD4801F750B80801AE50B640160B0
:1003E700E1E50B640260E0E50B640360DFE50B64A5
:1003F7000460DE80E1C3E50C9401F8E50B28F8857D
:10040700000B750A018500161138750A00850D164F
:060417001138750A0122F4
:10041D0075814A12049C31EC751601113875160C54
:10042D00113875110175120175133D311F751102CA
:10043D00751201751331311F7D0D7EAB7F7CDFFE93
:10044D00DEFCDDFA750B02750C0D750DDF71C775D0
:10045D000B02750C0E750D4671C785080B85090CC1
:10046D00518C75B0FF7D047E2B7F9DDFFEDEFCDDA4
:05047D00FA80E780FE9B
:0E049C007830791A75828275830412028422E8
:010482003A3F
:0904830020323620646F2046008F
:03048C002E30000F
:0D048F00204E4849455420444F203A20009B
:00000001FF
